:100000000C9436000C945E000C945E000C945E0020
:100010000C945E000C945E000C945E000C945E00E8
:100020000C945E000C945E000C945E000C945E00D8
:100030000C945E000C945E000C945E000C945E00C8
:100040000C94AB010C945E000C941B020C94F50113
:100050000C945E000C945E000C945E000C945E00A8
:100060000C945E000C945E004D02B40311241FBE7C
:10007000CFEFD8E0DEBFCDBF21E0AAE1B1E001C003
:100080001D92AA3CB207E1F711E0A0E0B1E0E0E781
:10009000FCE002C005900D92AA31B107D9F710E03B
:1000A000C5E3D0E004C02197FE010E942904C433B7
:1000B000D107C9F70E94B3020C942B060C940000E0
:1000C0000895CF92DF92EF92FF920F931F93CF93F9
:1000D000DF936C017A018B01C0E0D0E0CE15DF0523
:1000E00081F0D8016D918D01D601ED91FC910190C7
:1000F000F081E02DC6010995892B11F02196EECFF4
:100100007E01C701DF91CF911F910F91FF90EF907A
:10011000DF90CF90089580E090E00895FC01538D2A
:10012000448D252F30E0842F90E0821B930B5417D1
:1001300010F0CF96089501970895FC01918D828D5E
:10014000981761F0828DDF01A80FB11D5D968C912B
:10015000928D9F5F9F73928F90E008958FEF9FEF36
:100160000895FC01918D828D981731F0828DE80FF2
:10017000F11D858D90E008958FEF9FEF0895FC01AC
:10018000918D228D892F90E0805C9F4F821B910979
:100190008F739927089583E291E00E94BF0021E0C8
:1001A000892B09F420E0822F0895FC01848DDF0162
:1001B000A80FB11DA35ABF4F2C91848D90E00196DA
:1001C0008F739927848FA689B7892C93A089B189C9
:1001D0008C91837080648C93938D848D981306C06A
:1001E0000288F389E02D80818F7D80830895EF92CE
:1001F000FF920F931F93CF93DF93EC0181E0888FE1
:100200009B8D8C8D981305C0E889F989808185FDC7
:1002100026C0F62E0B8D10E00F5F1F4F0F731127B6
:10022000E02E8C8DE8120CC00FB607FCFACFE889DF
:10023000F989808185FFF5CFCE010E94D500F1CFED
:100240008B8DFE01E80FF11DE35AFF4FF0829FB73F
:10025000F8940B8FEA89FB89808180620AC09FB77E
:10026000F894EE89FF896083E889F9898081837039
:10027000806480839FBF81E090E0DF91CF911F91E8
:100280000F91FF90EF900895CF93DF93EC01888D4D
:100290008823C9F0EA89FB89808185FD05C0A8898A
:1002A000B9898C9186FD0FC00FB607FCF5CF808110
:1002B00085FFF2CFA889B9898C9185FFEDCFCE015A
:1002C0000E94D500E7CFDF91CF91089580E090E0C4
:1002D000892B29F00E94CB0081110C940000089515
:1002E000CF93DF93EC0188819981009711F00E94F0
:1002F000C704198218821D821C821B821A82DF9118
:10030000CF9108950E9416060F931F93CF93DF930A
:10031000EC0188819981009729F02A813B81261779
:10032000370788F48B016F5F7F4F0E94500500975D
:1003300061F0998388831B830A832C813D81232B61
:1003400011F4FC01108281E001C080E0DF91CF91C7
:100350001F910F9108951F920F920FB60F921124C3
:100360002F933F938F939F93AF93BF9380911F01E0
:1003700090912001A0912101B091220130911E01A4
:1003800023E0230F2D3720F40196A11DB11D05C0D8
:1003900026E8230F0296A11DB11D20931E01809314
:1003A0001F0190932001A0932101B093220180911D
:1003B0001A0190911B01A0911C01B0911D010196A1
:1003C000A11DB11D80931A0190931B01A0931C01E4
:1003D000B0931D01BF91AF919F918F913F912F914C
:1003E0000F900FBE0F901F9018951F920F920FB68F
:1003F0000F9211242F933F934F935F936F937F93AB
:100400008F939F93AF93BF93EF93FF9383E291E01A
:100410000E94D500FF91EF91BF91AF919F918F9175
:100420007F916F915F914F913F912F910F900FBEF0
:100430000F901F9018951F920F920FB60F921124D4
:100440002F938F939F93EF93FF93E0913301F0915C
:1004500034018081E0913901F0913A0182FD12C0AE
:10046000908180913C018F5F8F7320913D018217B5
:1004700051F0E0913C01F0E0ED5DFE4F958F8093EF
:100480003C0101C08081FF91EF919F918F912F914D
:100490000F900FBE0F901F9018951092260110928A
:1004A000250188EE93E0A0E0B0E0809327019093CF
:1004B0002801A0932901B0932A018AE091E090934A
:1004C00024018093230185EC90E090933001809388
:1004D0002F0184EC90E0909332018093310180EC05
:1004E00090E0909334018093330181EC90E09093FD
:1004F00036018093350182EC90E09093380180932F
:10050000370186EC90E090933A0180933901109284
:100510003C0110923D0110923E0110923F01109259
:10052000C1011092C0011092C3011092C201109239
:10053000C5011092C40160E070E080EC91E00E947F
:100540008401811104C080EC91E00C947001109240
:10055000C5011092C40168E171E08091C0019091E1
:10056000C1010C942406CF93DF93CDB7DEB7689713
:100570000FB6F894DEBF0FBECDBF789484B582600D
:1005800084BD84B5816084BD85B5826085BD85B537
:10059000816085BD80916E00816080936E001092B5
:1005A0008100809181008260809381008091810030
:1005B00081608093810080918000816080938000C1
:1005C0008091B10084608093B1008091B00081601F
:1005D0008093B00080917A00846080937A0080914B
:1005E0007A00826080937A0080917A0081608093A3
:1005F0007A0080917A00806880937A001092C1001E
:10060000E0913301F091340182E08083E0912F0189
:10061000F09130011082E0913101F09132018FECC4
:10062000808310923B01E0913701F091380186E020
:100630008083E0913501F091360180818061808373
:10064000E0913501F0913601808188608083E091EE
:100650003501F0913601808180688083E091350119
:10066000F091360180818F7D8083CE0101967C01DF
:1006700083E291E00E94BF00892B09F460C083E20D
:1006800091E00E949D001C8A1B8A1E8A1D8A188E7A
:100690001F8A4AE0B7010E94BD03F70101900020C4
:1006A000E9F731978F010E191F09B801CE01439662
:1006B0000E948401811105C0CE0143960E94700101
:1006C00007C0188F0F8BB7018B899C890E94240665
:1006D0008091C0019091C101009739F06B897C89AC
:1006E0006115710579F50E94C7048B899C899093E7
:1006F000C1018093C0018D899E899093C30180932D
:10070000C2018F89988D9093C5018093C4011C8A82
:100710001B8A1E8A1D8A188E1F8A8B899C890097C6
:1007200011F00E94C7044091C4015091C50160912D
:10073000C0017091C10183E291E00E9461000E94BA
:10074000660196CF4091C2015091C3012F89388D27
:100750004217530740F20E9424068F89988D909388
:10076000C5018093C401D7CF8091C0019091C10190
:10077000009711F00C94C7040895BB274A3031F458
:10078000992322F4BDE2909581959F4F0C94C90363
:10079000BB27FB015527AA27880F991FAA1FA4175B
:1007A00010F0A41B83955051B9F7A05DAA3308F04F
:1007B000A95DA193009779F7B111B1931192CB0183
:1007C0000C94E203DC01FC01672F71917723E1F7C0
:1007D000329704C07C916D9370836291AE17BF070E
:1007E000C8F308952F923F924F925F926F927F923B
:1007F0008F929F92AF92BF92CF92DF92EF92FF9231
:100800000F931F93CF93DF93CDB7DEB7CA1BDB0BDC
:100810000FB6F894DEBF0FBECDBF09942A88398881
:1008200048885F846E847D848C849B84AA84B98488
:10083000C884DF80EE80FD800C811B81AA81B98194
:10084000CE0FD11D0FB6F894DEBF0FBECDBFED01A8
:100850000895EE0FFF1F0590F491E02D09940F937A
:100860001F93CF93DF938230910510F482E090E0E4
:10087000E091C801F091C90120E030E0A0E0B0E0D3
:10088000309719F14081518102811381481759072E
:10089000C8F08417950769F4109731F012960C93FD
:1008A000129713961C9327C00093C8011093C90197
:1008B00022C02115310519F04217530718F49A0187
:1008C000BD01EF01DF01F801DBCF21153105F9F0A2
:1008D000281B390B2430310580F48A819B816115F6
:1008E000710521F0FB019383828304C09093C901B9
:1008F0008093C801FE01329644C0FE01E20FF31F4F
:100900008193919322503109398328833AC02091F1
:10091000C6013091C701232B41F42091020130918F
:1009200003013093C7012093C6012091000130914B
:1009300001012115310541F42DB73EB74091040165
:1009400050910501241B350BE091C601F091C701C0
:10095000E217F307A0F42E1B3F0B2817390778F096
:10096000AC014E5F5F4F2417350748F04E0F5F1FF5
:100970005093C7014093C6018193919302C0E0E078
:10098000F0E0CF01DF91CF911F910F910895CF93A8
:10099000DF93009709F481C0FC0132971382128221
:1009A000A091C801B091C901109781F420813181D3
:1009B000820F931F2091C6013091C7012817390774
:1009C00051F5F093C701E093C60167C0ED0120E047
:1009D00030E0CE17DF0740F44A815B819E0141156C
:1009E0005105F1F0EA01F5CFD383C28340815181F3
:1009F000840F951FC817D90759F488819981840FEE
:100A0000951F0296918380838A819B819383828341
:100A10002115310529F4F093C901E093C8013DC0C7
:100A2000E901FB83EA8349915991C40FD51FEC1763
:100A3000FD0761F480819181840F951F0296E90181
:100A400099838883828193819B838A83E0E0F0E0AD
:100A500012968D919C911397009719F0FD01DC017E
:100A6000F7CF8D919C9111979D012E5F3F4F820F83
:100A7000931F2091C6013091C7012817390769F4E7
:100A8000309729F41092C9011092C80102C0138254
:100A90001282B093C701A093C601DF91CF91089550
:100AA000A0E0B0E0E6E5F5E00C94F603EC01009779
:100AB00021F4CB010E942F04B4C0FC01E60FF71F04
:100AC0009C0122503109E217F30708F4A8C0D901AC
:100AD0000D911C91119706171707B0F005301105FD
:100AE00008F49BC0C80104978617970708F495C0BF
:100AF00002501109061B170B019311936D937C9300
:100B0000CF010E94C70489C05B01A01AB10A4C0141
:100B1000800E911EA091C801B091C901612C712C69
:100B2000E12CF12C109709F446C08D919C911197FE
:100B3000A815B905B1F56C0142E0C40ED11CCA1468
:100B4000DB0478F14C018A189B08640142E0C40E72
:100B5000D11C1296BC9012971396AC91B5E0CB16AF
:100B6000D10440F0B282A38391828082D9016D9337
:100B70007C9309C00E5F1F4F800F911FF901918375
:100B80008083EB2DFA2FE114F10431F0D701139695
:100B9000FC93EE93129741C0F093C901E093C80112
:100BA0003CC06816790608F43C017D0112960D9050
:100BB000BC91A02DB7CF8091C6019091C701881636
:100BC0009906E1F466167706C8F4809100019091C9
:100BD0000101009741F48DB79EB7409104015091F7
:100BE0000501841B950BE817F907C8F4F093C701BA
:100BF000E093C601F901718360830FC0CB010E94AD
:100C00002F047C01009759F0A801BE010E941B0629
:100C1000CE010E94C704C70104C0CE0102C080E01B
:100C200090E0CDB7DEB7EEE00C94120481E090E0E6
:100C3000F8940C942B06FB01DC0102C001900D928C
:100C400041505040D8F70895FB01DC0101900D920E
:100C50000020E1F7089510E0C5E3D0E004C0FE01F4
:100C60000E9429042196C633D107C9F7F894FFCF13
:100C70000000CA01200000000000F70061008E00A3
:0A0C80004401BF009D00B100000018
:107E0000112484B714BE81FFFDD085E080938100EA
:107E100082E08093C00088E18093C10096E0909357
:107E2000C20090E19093C400809360008EE0809344
:107E30006000259A86E020E33CEF91E030938500D6
:107E40002093840096BBB09BFECF1D9AA8958150CD
:107E5000A9F7C0E0D0E008E138E0F32EEE24E39487
:107E600045E0B42E51E1A52E13E0A7D0813491F462
:107E7000A4D0D82EAED082E8D81203C084E096D029
:107E800092C0E1E8DE1203C084E090D08CC083E0B1
:107E90008DD089C0823419F484E1A7D084C08534A0
:107EA00019F485E0A2D07FC0853549F486D0C82F6B
:107EB00084D0D0E0D82BCC0FDD1F8BD074C086359A
:107EC00029F484E092D080E071D06DC0843609F04E
:107ED0003FC073D072D0982E70D0C115F0E7DF0785
:107EE00038F4FE0117BFE895C12CDD24D39403C0FC
:107EF000C12CDD24D39461D0F60181936F019E12D1
:107F0000FACFC115F0E7DF0718F0FE0117BFE895BB
:107F100060D007B600FCFDCFFE01A0E0B1E08C917F
:107F200011962C91119790E0922B0C01E7BEE895E9
:107F3000112432961296A03881E0B80781F7FE012D
:107F4000B7BEE89507B600FCFDCFA7BEE8952BC0ED
:107F50008437B1F432D031D0982E2FD03AD0892C3A
:107F6000FE016F018FEFC81AD80A84911FD08A943E
:107F7000F6018110F6CF21969A94C90DD11D13C038
:107F8000853741F426D08EE111D085E90FD08FE0FE
:107F90000DD009C0813531F400936000F09260008B
:107FA00018D001C016D080E101D05FCF9091C00001
:107FB00095FFFCCF8093C60008958091C00087FF95
:107FC000FCCF8091C00084FD01C0A8958091C600BF
:107FD0000895F3DF803239F088E18093600088E013
:107FE00080936000FFCF84E1E1CFCF93C82FE5DF1E
:107FF000C150E9F7CF91EDCFE0E6F0E098E1908352
:1080000080830895E0E6F0E088E180831082EE2727
:04801000FF270994A9
:027FFE00040479
:0400000300007E007B
:00000001FF
